{
  "_format": "hh-sol-artifact-1",
  "contractName": "StakeManager",
  "sourceName": "contracts/StakeManager.sol",
  "abi": [
    {
      "anonymous": false,
      "inputs": [
        {
          "indexed": true,
          "internalType": "address",
          "name": "_account",
          "type": "address"
        },
        {
          "indexed": false,
          "internalType": "uint256",
          "name": "_idx",
          "type": "uint256"
        },
        {
          "indexed": false,
          "internalType": "uint256",
          "name": "_amount",
          "type": "uint256"
        }
      ],
      "name": "ClaimWithdrawal",
      "type": "event"
    },
    {
      "anonymous": false,
      "inputs": [
        {
          "indexed": false,
          "internalType": "uint256",
          "name": "uuid",
          "type": "uint256"
        },
        {
          "indexed": false,
          "internalType": "uint256",
          "name": "amount",
          "type": "uint256"
        }
      ],
      "name": "Delegate",
      "type": "event"
    },
    {
      "anonymous": false,
      "inputs": [
        {
          "indexed": false,
          "internalType": "uint8",
          "name": "version",
          "type": "uint8"
        }
      ],
      "name": "Initialized",
      "type": "event"
    },
    {
      "anonymous": false,
      "inputs": [
        {
          "indexed": false,
          "internalType": "address",
          "name": "account",
          "type": "address"
        }
      ],
      "name": "Paused",
      "type": "event"
    },
    {
      "anonymous": false,
      "inputs": [
        {
          "indexed": true,
          "internalType": "address",
          "name": "_account",
          "type": "address"
        },
        {
          "indexed": false,
          "internalType": "uint256",
          "name": "_amountBnbX",
          "type": "uint256"
        },
        {
          "indexed": false,
          "internalType": "uint256",
          "name": "_amountBnb",
          "type": "uint256"
        }
      ],
      "name": "RequestWithdraw",
      "type": "event"
    },
    {
      "anonymous": false,
      "inputs": [
        {
          "indexed": true,
          "internalType": "bytes32",
          "name": "role",
          "type": "bytes32"
        },
        {
          "indexed": true,
          "internalType": "bytes32",
          "name": "previousAdminRole",
          "type": "bytes32"
        },
        {
          "indexed": true,
          "internalType": "bytes32",
          "name": "newAdminRole",
          "type": "bytes32"
        }
      ],
      "name": "RoleAdminChanged",
      "type": "event"
    },
    {
      "anonymous": false,
      "inputs": [
        {
          "indexed": true,
          "internalType": "bytes32",
          "name": "role",
          "type": "bytes32"
        },
        {
          "indexed": true,
          "internalType": "address",
          "name": "account",
          "type": "address"
        },
        {
          "indexed": true,
          "internalType": "address",
          "name": "sender",
          "type": "address"
        }
      ],
      "name": "RoleGranted",
      "type": "event"
    },
    {
      "anonymous": false,
      "inputs": [
        {
          "indexed": true,
          "internalType": "bytes32",
          "name": "role",
          "type": "bytes32"
        },
        {
          "indexed": true,
          "internalType": "address",
          "name": "account",
          "type": "address"
        },
        {
          "indexed": true,
          "internalType": "address",
          "name": "sender",
          "type": "address"
        }
      ],
      "name": "RoleRevoked",
      "type": "event"
    },
    {
      "anonymous": false,
      "inputs": [
        {
          "indexed": true,
          "internalType": "address",
          "name": "_address",
          "type": "address"
        }
      ],
      "name": "SetBotAddress",
      "type": "event"
    },
    {
      "anonymous": false,
      "inputs": [
        {
          "indexed": false,
          "internalType": "uint256",
          "name": "amount",
          "type": "uint256"
        }
      ],
      "name": "TransferOut",
      "type": "event"
    },
    {
      "anonymous": false,
      "inputs": [
        {
          "indexed": false,
          "internalType": "uint256",
          "name": "uuid",
          "type": "uint256"
        },
        {
          "indexed": false,
          "internalType": "uint256",
          "name": "amount",
          "type": "uint256"
        }
      ],
      "name": "Undelegate",
      "type": "event"
    },
    {
      "anonymous": false,
      "inputs": [
        {
          "indexed": false,
          "internalType": "address",
          "name": "account",
          "type": "address"
        }
      ],
      "name": "Unpaused",
      "type": "event"
    },
    {
      "inputs": [],
      "name": "BOT",
      "outputs": [
        {
          "internalType": "bytes32",
          "name": "",
          "type": "bytes32"
        }
      ],
      "stateMutability": "view",
      "type": "function"
    },
    {
      "inputs": [],
      "name": "DEFAULT_ADMIN_ROLE",
      "outputs": [
        {
          "internalType": "bytes32",
          "name": "",
          "type": "bytes32"
        }
      ],
      "stateMutability": "view",
      "type": "function"
    },
    {
      "inputs": [],
      "name": "TEN_DECIMALS",
      "outputs": [
        {
          "internalType": "uint256",
          "name": "",
          "type": "uint256"
        }
      ],
      "stateMutability": "view",
      "type": "function"
    },
    {
      "inputs": [
        {
          "internalType": "uint256",
          "name": "_idx",
          "type": "uint256"
        }
      ],
      "name": "claimWithdraw",
      "outputs": [],
      "stateMutability": "nonpayable",
      "type": "function"
    },
    {
      "inputs": [
        {
          "internalType": "uint256",
          "name": "uuid",
          "type": "uint256"
        }
      ],
      "name": "completeDelegation",
      "outputs": [],
      "stateMutability": "nonpayable",
      "type": "function"
    },
    {
      "inputs": [
        {
          "internalType": "uint256",
          "name": "_uuid",
          "type": "uint256"
        }
      ],
      "name": "completeUndelegation",
      "outputs": [],
      "stateMutability": "payable",
      "type": "function"
    },
    {
      "inputs": [
        {
          "internalType": "uint256",
          "name": "_amount",
          "type": "uint256"
        }
      ],
      "name": "convertBnbToBnbX",
      "outputs": [
        {
          "internalType": "uint256",
          "name": "",
          "type": "uint256"
        }
      ],
      "stateMutability": "view",
      "type": "function"
    },
    {
      "inputs": [
        {
          "internalType": "uint256",
          "name": "_amount",
          "type": "uint256"
        }
      ],
      "name": "convertBnbXToBnb",
      "outputs": [
        {
          "internalType": "uint256",
          "name": "",
          "type": "uint256"
        }
      ],
      "stateMutability": "view",
      "type": "function"
    },
    {
      "inputs": [],
      "name": "deposit",
      "outputs": [],
      "stateMutability": "payable",
      "type": "function"
    },
    {
      "inputs": [],
      "name": "getContracts",
      "outputs": [
        {
          "internalType": "address",
          "name": "_bnbX",
          "type": "address"
        },
        {
          "internalType": "address",
          "name": "_tokenHub",
          "type": "address"
        },
        {
          "internalType": "address",
          "name": "_bcDepositWallet",
          "type": "address"
        },
        {
          "internalType": "address",
          "name": "_bot",
          "type": "address"
        }
      ],
      "stateMutability": "view",
      "type": "function"
    },
    {
      "inputs": [
        {
          "internalType": "bytes32",
          "name": "role",
          "type": "bytes32"
        }
      ],
      "name": "getRoleAdmin",
      "outputs": [
        {
          "internalType": "bytes32",
          "name": "",
          "type": "bytes32"
        }
      ],
      "stateMutability": "view",
      "type": "function"
    },
    {
      "inputs": [],
      "name": "getTokenHubRelayFee",
      "outputs": [
        {
          "internalType": "uint256",
          "name": "",
          "type": "uint256"
        }
      ],
      "stateMutability": "view",
      "type": "function"
    },
    {
      "inputs": [
        {
          "internalType": "address",
          "name": "_address",
          "type": "address"
        }
      ],
      "name": "getUserWithdrawalRequests",
      "outputs": [
        {
          "components": [
            {
              "internalType": "uint256",
              "name": "uuid",
              "type": "uint256"
            },
            {
              "internalType": "uint256",
              "name": "amount",
              "type": "uint256"
            }
          ],
          "internalType": "struct IStakeManager.WithdrawalRequest[]",
          "name": "",
          "type": "tuple[]"
        }
      ],
      "stateMutability": "view",
      "type": "function"
    },
    {
      "inputs": [
        {
          "internalType": "bytes32",
          "name": "role",
          "type": "bytes32"
        },
        {
          "internalType": "address",
          "name": "account",
          "type": "address"
        }
      ],
      "name": "grantRole",
      "outputs": [],
      "stateMutability": "nonpayable",
      "type": "function"
    },
    {
      "inputs": [
        {
          "internalType": "bytes32",
          "name": "role",
          "type": "bytes32"
        },
        {
          "internalType": "address",
          "name": "account",
          "type": "address"
        }
      ],
      "name": "hasRole",
      "outputs": [
        {
          "internalType": "bool",
          "name": "",
          "type": "bool"
        }
      ],
      "stateMutability": "view",
      "type": "function"
    },
    {
      "inputs": [
        {
          "internalType": "address",
          "name": "_bnbX",
          "type": "address"
        },
        {
          "internalType": "address",
          "name": "_manager",
          "type": "address"
        },
        {
          "internalType": "address",
          "name": "_tokenHub",
          "type": "address"
        },
        {
          "internalType": "address",
          "name": "_bcDepositWallet",
          "type": "address"
        },
        {
          "internalType": "address",
          "name": "_bot",
          "type": "address"
        }
      ],
      "name": "initialize",
      "outputs": [],
      "stateMutability": "nonpayable",
      "type": "function"
    },
    {
      "inputs": [],
      "name": "paused",
      "outputs": [
        {
          "internalType": "bool",
          "name": "",
          "type": "bool"
        }
      ],
      "stateMutability": "view",
      "type": "function"
    },
    {
      "inputs": [
        {
          "internalType": "bytes32",
          "name": "role",
          "type": "bytes32"
        },
        {
          "internalType": "address",
          "name": "account",
          "type": "address"
        }
      ],
      "name": "renounceRole",
      "outputs": [],
      "stateMutability": "nonpayable",
      "type": "function"
    },
    {
      "inputs": [
        {
          "internalType": "uint256",
          "name": "_amount",
          "type": "uint256"
        }
      ],
      "name": "requestWithdraw",
      "outputs": [],
      "stateMutability": "nonpayable",
      "type": "function"
    },
    {
      "inputs": [
        {
          "internalType": "bytes32",
          "name": "role",
          "type": "bytes32"
        },
        {
          "internalType": "address",
          "name": "account",
          "type": "address"
        }
      ],
      "name": "revokeRole",
      "outputs": [],
      "stateMutability": "nonpayable",
      "type": "function"
    },
    {
      "inputs": [
        {
          "internalType": "address",
          "name": "_address",
          "type": "address"
        }
      ],
      "name": "setBotAddress",
      "outputs": [],
      "stateMutability": "nonpayable",
      "type": "function"
    },
    {
      "inputs": [],
      "name": "startDelegation",
      "outputs": [
        {
          "internalType": "uint256",
          "name": "_uuid",
          "type": "uint256"
        },
        {
          "internalType": "uint256",
          "name": "_amount",
          "type": "uint256"
        }
      ],
      "stateMutability": "payable",
      "type": "function"
    },
    {
      "inputs": [],
      "name": "startUndelegation",
      "outputs": [
        {
          "internalType": "uint256",
          "name": "_uuid",
          "type": "uint256"
        },
        {
          "internalType": "uint256",
          "name": "_amount",
          "type": "uint256"
        }
      ],
      "stateMutability": "nonpayable",
      "type": "function"
    },
    {
      "inputs": [
        {
          "internalType": "bytes4",
          "name": "interfaceId",
          "type": "bytes4"
        }
      ],
      "name": "supportsInterface",
      "outputs": [
        {
          "internalType": "bool",
          "name": "",
          "type": "bool"
        }
      ],
      "stateMutability": "view",
      "type": "function"
    },
    {
      "inputs": [],
      "name": "togglePause",
      "outputs": [],
      "stateMutability": "nonpayable",
      "type": "function"
    },
    {
      "inputs": [],
      "name": "totalBnbToWithdraw",
      "outputs": [
        {
          "internalType": "uint256",
          "name": "",
          "type": "uint256"
        }
      ],
      "stateMutability": "view",
      "type": "function"
    },
    {
      "inputs": [],
      "name": "totalBnbXToBurn",
      "outputs": [
        {
          "internalType": "uint256",
          "name": "",
          "type": "uint256"
        }
      ],
      "stateMutability": "view",
      "type": "function"
    },
    {
      "inputs": [],
      "name": "totalDeposited",
      "outputs": [
        {
          "internalType": "uint256",
          "name": "",
          "type": "uint256"
        }
      ],
      "stateMutability": "view",
      "type": "function"
    },
    {
      "inputs": [],
      "name": "totalOutBuffer",
      "outputs": [
        {
          "internalType": "uint256",
          "name": "",
          "type": "uint256"
        }
      ],
      "stateMutability": "view",
      "type": "function"
    },
    {
      "inputs": [],
      "name": "totalRedelegated",
      "outputs": [
        {
          "internalType": "uint256",
          "name": "",
          "type": "uint256"
        }
      ],
      "stateMutability": "view",
      "type": "function"
    },
    {
      "inputs": [],
      "name": "totalUnstaked",
      "outputs": [
        {
          "internalType": "uint256",
          "name": "",
          "type": "uint256"
        }
      ],
      "stateMutability": "view",
      "type": "function"
    }
  ],
  "bytecode": "0x608060405234801561001057600080fd5b5061421a806100206000396000f3fe6080604052600436106101d85760003560e01c806396f71e9811610102578063c4ae316811610095578063e0c2959911610064578063e0c2959914610675578063ed5857b9146106a1578063f844e29b146106cc578063ff50abdc146106f7576101d8565b8063c4ae3168146105ee578063ca0506e814610605578063d0e30db014610642578063d547741f1461064c576101d8565b8063b13acedd116100d1578063b13acedd14610543578063b3d4fb701461056c578063ba2600a914610597578063c3a2a93a146105c0576101d8565b806396f71e98146104b2578063a217fddf146104dd578063a21cfbc114610508578063ae03ce7514610524576101d8565b806336568abe1161017a5780635d499b1b116101495780635d499b1b146103e45780636c9302281461040f578063745400c91461044c57806391d1485414610475576101d8565b806336568abe1461033a578063486277f6146103635780635235934d1461038e5780635c975abb146103b9576101d8565b806318bc833d116101b657806318bc833d1461026e578063248a9ca3146102ab5780632d4f40c6146102e85780632f2ff15d14610311576101d8565b806301ffc9a7146101dd578063109b87a01461021a5780631459457a14610245575b600080fd5b3480156101e957600080fd5b5061020460048036038101906101ff9190612ee3565b610722565b60405161021191906135dc565b60405180910390f35b34801561022657600080fd5b5061022f61079c565b60405161023c91906138ef565b60405180910390f35b34801561025157600080fd5b5061026c60048036038101906102679190612dde565b6107a2565b005b34801561027a57600080fd5b5061029560048036038101906102909190612f0c565b61097e565b6040516102a291906138ef565b60405180910390f35b3480156102b757600080fd5b506102d260048036038101906102cd9190612e7e565b610a7b565b6040516102df91906135f7565b60405180910390f35b3480156102f457600080fd5b5061030f600480360381019061030a9190612db5565b610a9b565b005b34801561031d57600080fd5b5061033860048036038101906103339190612ea7565b610c37565b005b34801561034657600080fd5b50610361600480360381019061035c9190612ea7565b610c58565b005b34801561036f57600080fd5b50610378610cdb565b60405161038591906135f7565b60405180910390f35b34801561039a57600080fd5b506103a3610cff565b6040516103b091906138ef565b60405180910390f35b3480156103c557600080fd5b506103ce610d05565b6040516103db91906135dc565b60405180910390f35b3480156103f057600080fd5b506103f9610d1c565b60405161040691906138ef565b60405180910390f35b34801561041b57600080fd5b5061043660048036038101906104319190612db5565b610d25565b60405161044391906135ba565b60405180910390f35b34801561045857600080fd5b50610473600480360381019061046e9190612f0c565b610dd7565b005b34801561048157600080fd5b5061049c60048036038101906104979190612ea7565b611029565b6040516104a991906135dc565b60405180910390f35b3480156104be57600080fd5b506104c7611094565b6040516104d491906138ef565b60405180910390f35b3480156104e957600080fd5b506104f261109a565b6040516104ff91906135f7565b60405180910390f35b610522600480360381019061051d9190612f0c565b6110a1565b005b61052c611244565b60405161053a92919061390a565b60405180910390f35b34801561054f57600080fd5b5061056a60048036038101906105659190612f0c565b611554565b005b34801561057857600080fd5b5061058161187b565b60405161058e91906138ef565b60405180910390f35b3480156105a357600080fd5b506105be60048036038101906105b99190612f0c565b611881565b005b3480156105cc57600080fd5b506105d56119fb565b6040516105e594939291906134d0565b60405180910390f35b3480156105fa57600080fd5b50610603611a9b565b005b34801561061157600080fd5b5061062c60048036038101906106279190612f0c565b611acd565b60405161063991906138ef565b60405180910390f35b61064a611bca565b005b34801561065857600080fd5b50610673600480360381019061066e9190612ea7565b611d2c565b005b34801561068157600080fd5b5061068a611d4d565b60405161069892919061390a565b60405180910390f35b3480156106ad57600080fd5b506106b6611f3a565b6040516106c391906138ef565b60405180910390f35b3480156106d857600080fd5b506106e1611f40565b6040516106ee91906138ef565b60405180910390f35b34801561070357600080fd5b5061070c611fe7565b60405161071991906138ef565b60405180910390f35b60007f7965db0b000000000000000000000000000000000000000000000000000000007bffffffffffffffffffffffffffffffffffffffffffffffffffffffff1916827bffffffffffffffffffffffffffffffffffffffffffffffffffffffff19161480610795575061079482611fed565b5b9050919050565b60cc5481565b60006107ae6001612057565b905080156107d2576001600060016101000a81548160ff0219169083151502179055505b6107da612147565b6107e2612198565b6107ef6000801b866121f1565b6108197f902cbe3a02736af9827fb6a90bada39e955c0941e08f0c63b3a662a7b17a4e2b836121f1565b8560cf60006101000a81548173ffffffffffffffffffffffffffffffffffffffff021916908373ffffffffffffffffffffffffffffffffffffffff1602179055508360d160006101000a81548173ffffffffffffffffffffffffffffffffffffffff021916908373ffffffffffffffffffffffffffffffffffffffff1602179055508260d060006101000a81548173ffffffffffffffffffffffffffffffffffffffff021916908373ffffffffffffffffffffffffffffffffffffffff1602179055508160d260006101000a81548173ffffffffffffffffffffffffffffffffffffffff021916908373ffffffffffffffffffffffffffffffffffffffff16021790555080156109765760008060016101000a81548160ff0219169083151502179055507f7f26b83ff96e1f2b6a682f133852f6798a09c465da95921460cefb3847402498600160405161096d9190613612565b60405180910390a15b505050505050565b60008060cf60009054906101000a900473ffffffffffffffffffffffffffffffffffffffff1673ffffffffffffffffffffffffffffffffffffffff166318160ddd6040518163ffffffff1660e01b815260040160206040518083038186803b1580156109e957600080fd5b505afa1580156109fd573d6000803e3d6000fd5b505050506040513d601f19601f82011682018060405250810190610a219190612f35565b905060008114610a315780610a34565b60015b90506000610a406121ff565b905060008114610a505780610a53565b60015b90506000818386610a649190613a30565b610a6e91906139ff565b9050809350505050919050565b600060976000838152602001908152602001600020600101549050919050565b6000801b610aa881612216565b8173ffffffffffffffffffffffffffffffffffffffff1660d260009054906101000a900473ffffffffffffffffffffffffffffffffffffffff1673ffffffffffffffffffffffffffffffffffffffff161415610b39576040517f08c379a0000000000000000000000000000000000000000000000000000000008152600401610b309061382f565b60405180910390fd5b610b857f902cbe3a02736af9827fb6a90bada39e955c0941e08f0c63b3a662a7b17a4e2b60d260009054906101000a900473ffffffffffffffffffffffffffffffffffffffff1661222a565b8160d260006101000a81548173ffffffffffffffffffffffffffffffffffffffff021916908373ffffffffffffffffffffffffffffffffffffffff160217905550610bf07f902cbe3a02736af9827fb6a90bada39e955c0941e08f0c63b3a662a7b17a4e2b836121f1565b8173ffffffffffffffffffffffffffffffffffffffff167f2cd94ba4871010f71a171b6b56ea21e121548f2831b1cdadcd2eb9cf7daada8760405160405180910390a25050565b610c4082610a7b565b610c4981612216565b610c53838361230c565b505050565b610c606123ed565b73ffffffffffffffffffffffffffffffffffffffff168173ffffffffffffffffffffffffffffffffffffffff1614610ccd576040517f08c379a0000000000000000000000000000000000000000000000000000000008152600401610cc4906138cf565b60405180910390fd5b610cd7828261222a565b5050565b7f902cbe3a02736af9827fb6a90bada39e955c0941e08f0c63b3a662a7b17a4e2b81565b60ca5481565b6000603360009054906101000a900460ff16905090565b6402540be40081565b606060d560008373ffffffffffffffffffffffffffffffffffffffff1673ffffffffffffffffffffffffffffffffffffffff168152602001908152602001600020805480602002602001604051908101604052809291908181526020016000905b82821015610dcc57838290600052602060002090600202016040518060400160405290816000820154815260200160018201548152505081526020019060010190610d86565b505050509050919050565b610ddf610d05565b15610e1f576040517f08c379a0000000000000000000000000000000000000000000000000000000008152600401610e16906137cf565b60405180910390fd5b60008111610e62576040517f08c379a0000000000000000000000000000000000000000000000000000000008152600401610e599061370f565b60405180910390fd5b6000610e6d82611acd565b9050610ebe33308460cf60009054906101000a900473ffffffffffffffffffffffffffffffffffffffff1673ffffffffffffffffffffffffffffffffffffffff166123f5909392919063ffffffff16565b6000610ec86121ff565b905080821115610f0d576040517f08c379a0000000000000000000000000000000000000000000000000000000008152600401610f049061386f565b60405180910390fd5b8160cd6000828254610f1f91906139a9565b925050819055508260ce6000828254610f3891906139a9565b9250508190555060d560003373ffffffffffffffffffffffffffffffffffffffff1673ffffffffffffffffffffffffffffffffffffffff168152602001908152602001600020604051806040016040528060d7548152602001848152509080600181540180825580915050600190039060005260206000209060020201600090919091909150600082015181600001556020820151816001015550503373ffffffffffffffffffffffffffffffffffffffff167febeaa8785285a4f7c37a305351997dceebabc3c357dab98023dc37514a1b6ed6848460405161101c92919061390a565b60405180910390a2505050565b60006097600084815260200190815260200160002060000160008373ffffffffffffffffffffffffffffffffffffffff1673ffffffffffffffffffffffffffffffffffffffff16815260200190815260200160002060009054906101000a900460ff16905092915050565b60ce5481565b6000801b81565b6110a9610d05565b156110e9576040517f08c379a00000000000000000000000000000000000000000000000000000000081526004016110e0906137cf565b60405180910390fd5b7f902cbe3a02736af9827fb6a90bada39e955c0941e08f0c63b3a662a7b17a4e2b61111381612216565b600060d460008481526020019081526020016000206002015411801561114f5750600060d4600084815260200190815260200160002060010154145b61118e576040517f08c379a0000000000000000000000000000000000000000000000000000000008152600401611185906136cf565b60405180910390fd5b600034905060d460008481526020019081526020016000206002015481146111eb576040517f08c379a00000000000000000000000000000000000000000000000000000000081526004016111e29061368f565b60405180910390fd5b4260d46000858152602001908152602001600020600101819055507ffdbb8c003d20bab9656233805edff5b59deada55ab94383f586c5b781b87c38d838260405161123792919061390a565b60405180910390a1505050565b60008061124f610d05565b1561128f576040517f08c379a0000000000000000000000000000000000000000000000000000000008152600401611286906137cf565b60405180910390fd5b7f902cbe3a02736af9827fb6a90bada39e955c0941e08f0c63b3a662a7b17a4e2b6112b981612216565b60006112c3611f40565b9050600034905060006402540be40060ca546112df9190613c15565b60ca546112ec9190613a8a565b905082821015611331576040517f08c379a0000000000000000000000000000000000000000000000000000000008152600401611328906136ef565b60405180910390fd5b60008111611374576040517f08c379a000000000000000000000000000000000000000000000000000000000815260040161136b906137af565b60405180910390fd5b6040518060600160405280428152602001600081526020018281525060d3600060d660008154809291906113a790613bcc565b9190505581526020019081526020016000206000820151816000015560208201518160010155604082015181600201559050508060cb60008282546113ec91906139a9565b925050819055508060ca60008282546114059190613a8a565b92505081905550600060784261141b91906139a9565b905060d160009054906101000a900473ffffffffffffffffffffffffffffffffffffffff1673ffffffffffffffffffffffffffffffffffffffff1663aa7415f5848461146791906139a9565b600060d060009054906101000a900473ffffffffffffffffffffffffffffffffffffffff1686866040518663ffffffff1660e01b81526004016114ad949392919061354c565b6020604051808303818588803b1580156114c657600080fd5b505af11580156114da573d6000803e3d6000fd5b50505050506040513d601f19601f820116820180604052508101906114ff9190612e55565b507fd70b6c02a759efec11d337171af1905f9f88902e3ce939869591e0bbe686dc6a8260405161152f91906138ef565b60405180910390a1600160d6546115469190613a8a565b965081955050505050509091565b61155c610d05565b1561159c576040517f08c379a0000000000000000000000000000000000000000000000000000000008152600401611593906137cf565b60405180910390fd5b6000339050600060d560008373ffffffffffffffffffffffffffffffffffffffff1673ffffffffffffffffffffffffffffffffffffffff16815260200190815260200160002090508080549050831061162a576040517f08c379a0000000000000000000000000000000000000000000000000000000008152600401611621906136af565b60405180910390fd5b6000818481548110611665577f4e487b7100000000000000000000000000000000000000000000000000000000600052603260045260246000fd5b9060005260206000209060020201604051806040016040529081600082015481526020016001820154815250509050600081600001519050600082602001519050600060d46000848152602001908152602001600020600101541415611700576040517f08c379a00000000000000000000000000000000000000000000000000000000081526004016116f7906137ef565b60405180910390fd5b83600185805490506117129190613a8a565b81548110611749577f4e487b7100000000000000000000000000000000000000000000000000000000600052603260045260246000fd5b9060005260206000209060020201848781548110611790577f4e487b7100000000000000000000000000000000000000000000000000000000600052603260045260246000fd5b90600052602060002090600202016000820154816000015560018201548160010155905050838054806117ec577f4e487b7100000000000000000000000000000000000000000000000000000000600052603160045260246000fd5b600190038181906000526020600020906002020160008082016000905560018201600090555050905561181f858261247e565b8473ffffffffffffffffffffffffffffffffffffffff167f63bfb3a58e0713d68e49dda62c223fab04fb534eeef8ac6356cec78e691c092a87856020015160405161186b92919061390a565b60405180910390a2505050505050565b60cb5481565b611889610d05565b156118c9576040517f08c379a00000000000000000000000000000000000000000000000000000000081526004016118c0906137cf565b60405180910390fd5b7f902cbe3a02736af9827fb6a90bada39e955c0941e08f0c63b3a662a7b17a4e2b6118f381612216565b600060d360008481526020019081526020016000206002015411801561192f5750600060d3600084815260200190815260200160002060010154145b61196e576040517f08c379a0000000000000000000000000000000000000000000000000000000008152600401611965906136cf565b60405180910390fd5b4260d3600084815260200190815260200160002060010181905550600060d360008481526020019081526020016000206002015490508060cb60008282546119b69190613a8a565b925050819055507f8f0a6a275be31c643d9ad67b6710ba8b13d370aeefbaec4c1d1f2ce1f8ed055b83826040516119ee92919061390a565b60405180910390a1505050565b60008060008060cf60009054906101000a900473ffffffffffffffffffffffffffffffffffffffff16935060d160009054906101000a900473ffffffffffffffffffffffffffffffffffffffff16925060d060009054906101000a900473ffffffffffffffffffffffffffffffffffffffff16915060d260009054906101000a900473ffffffffffffffffffffffffffffffffffffffff16905090919293565b6000801b611aa881612216565b611ab0610d05565b611ac157611abc612572565b611aca565b611ac9612615565b5b50565b60008060cf60009054906101000a900473ffffffffffffffffffffffffffffffffffffffff1673ffffffffffffffffffffffffffffffffffffffff166318160ddd6040518163ffffffff1660e01b815260040160206040518083038186803b158015611b3857600080fd5b505afa158015611b4c573d6000803e3d6000fd5b505050506040513d601f19601f82011682018060405250810190611b709190612f35565b905060008114611b805780611b83565b60015b90506000611b8f6121ff565b905060008114611b9f5780611ba2565b60015b90506000828286611bb39190613a30565b611bbd91906139ff565b9050809350505050919050565b611bd2610d05565b15611c12576040517f08c379a0000000000000000000000000000000000000000000000000000000008152600401611c09906137cf565b60405180910390fd5b600034905060008111611c5a576040517f08c379a0000000000000000000000000000000000000000000000000000000008152600401611c519061370f565b60405180910390fd5b6000611c658261097e565b90508160c96000828254611c7991906139a9565b925050819055508160ca6000828254611c9291906139a9565b9250508190555060cf60009054906101000a900473ffffffffffffffffffffffffffffffffffffffff1673ffffffffffffffffffffffffffffffffffffffff166340c10f1933836040518363ffffffff1660e01b8152600401611cf6929190613591565b600060405180830381600087803b158015611d1057600080fd5b505af1158015611d24573d6000803e3d6000fd5b505050505050565b611d3582610a7b565b611d3e81612216565b611d48838361222a565b505050565b600080611d58610d05565b15611d98576040517f08c379a0000000000000000000000000000000000000000000000000000000008152600401611d8f906137cf565b60405180910390fd5b7f902cbe3a02736af9827fb6a90bada39e955c0941e08f0c63b3a662a7b17a4e2b611dc281612216565b600060cd5411611e07576040517f08c379a0000000000000000000000000000000000000000000000000000000008152600401611dfe9061372f565b60405180910390fd5b60d76000815480929190611e1a90613bcc565b91905055925060cd5491506040518060600160405280428152602001600081526020018381525060d460008581526020019081526020016000206000820151816000015560208201518160010155604082015181600201559050508160c96000828254611e879190613a8a565b92505081905550600060ce549050600060ce81905550600060cd8190555060cf60009054906101000a900473ffffffffffffffffffffffffffffffffffffffff1673ffffffffffffffffffffffffffffffffffffffff16639dc29fac30836040518363ffffffff1660e01b8152600401611f02929190613591565b600060405180830381600087803b158015611f1c57600080fd5b505af1158015611f30573d6000803e3d6000fd5b5050505050509091565b60cd5481565b600060d160009054906101000a900473ffffffffffffffffffffffffffffffffffffffff1673ffffffffffffffffffffffffffffffffffffffff166371d308636040518163ffffffff1660e01b815260040160206040518083038186803b158015611faa57600080fd5b505afa158015611fbe573d6000803e3d6000fd5b505050506040513d601f19601f82011682018060405250810190611fe29190612f35565b905090565b60c95481565b60007f01ffc9a7000000000000000000000000000000000000000000000000000000007bffffffffffffffffffffffffffffffffffffffffffffffffffffffff1916827bffffffffffffffffffffffffffffffffffffffffffffffffffffffff1916149050919050565b60008060019054906101000a900460ff16156120ce5760018260ff161480156120865750612084306126b7565b155b6120c5576040517f08c379a00000000000000000000000000000000000000000000000000000000081526004016120bc9061380f565b60405180910390fd5b60009050612142565b8160ff1660008054906101000a900460ff1660ff1610612123576040517f08c379a000000000000000000000000000000000000000000000000000000000815260040161211a9061380f565b60405180910390fd5b816000806101000a81548160ff021916908360ff160217905550600190505b919050565b600060019054906101000a900460ff16612196576040517f08c379a000000000000000000000000000000000000000000000000000000000815260040161218d9061388f565b60405180910390fd5b565b600060019054906101000a900460ff166121e7576040517f08c379a00000000000000000000000000000000000000000000000000000000081526004016121de9061388f565b60405180910390fd5b6121ef6126da565b565b6121fb828261230c565b5050565b600060cc5460c95461221191906139a9565b905090565b612227816122226123ed565b612746565b50565b6122348282611029565b156123085760006097600084815260200190815260200160002060000160008373ffffffffffffffffffffffffffffffffffffffff1673ffffffffffffffffffffffffffffffffffffffff16815260200190815260200160002060006101000a81548160ff0219169083151502179055506122ad6123ed565b73ffffffffffffffffffffffffffffffffffffffff168173ffffffffffffffffffffffffffffffffffffffff16837ff6391f5c32d9c69d2a47ea670b442974b53935d1edc7fd64eb21e047a839171b60405160405180910390a45b5050565b6123168282611029565b6123e95760016097600084815260200190815260200160002060000160008373ffffffffffffffffffffffffffffffffffffffff1673ffffffffffffffffffffffffffffffffffffffff16815260200190815260200160002060006101000a81548160ff02191690831515021790555061238e6123ed565b73ffffffffffffffffffffffffffffffffffffffff168173ffffffffffffffffffffffffffffffffffffffff16837f2f8788117e7eff1d82e926ec794901d17c78024a50270940304540a733656f0d60405160405180910390a45b5050565b600033905090565b612478846323b872dd60e01b85858560405160240161241693929190613515565b604051602081830303815290604052907bffffffffffffffffffffffffffffffffffffffffffffffffffffffff19166020820180517bffffffffffffffffffffffffffffffffffffffffffffffffffffffff83818316178352505050506127e3565b50505050565b804710156124c1576040517f08c379a00000000000000000000000000000000000000000000000000000000081526004016124b89061376f565b60405180910390fd5b60008273ffffffffffffffffffffffffffffffffffffffff16826040516124e790613466565b60006040518083038185875af1925050503d8060008114612524576040519150601f19603f3d011682016040523d82523d6000602084013e612529565b606091505b505090508061256d576040517f08c379a00000000000000000000000000000000000000000000000000000000081526004016125649061374f565b60405180910390fd5b505050565b61257a610d05565b156125ba576040517f08c379a00000000000000000000000000000000000000000000000000000000081526004016125b1906137cf565b60405180910390fd5b6001603360006101000a81548160ff0219169083151502179055507f62e78cea01bee320cd4e420270b5ea74000d11b0c9f74754ebdbfc544b05a2586125fe6123ed565b60405161260b91906134b5565b60405180910390a1565b61261d610d05565b61265c576040517f08c379a00000000000000000000000000000000000000000000000000000000081526004016126539061366f565b60405180910390fd5b6000603360006101000a81548160ff0219169083151502179055507f5db9ee0a495bf2e6ff9c91a7834c1ba4fdd244a5e8aa4e537bd38aeae4b073aa6126a06123ed565b6040516126ad91906134b5565b60405180910390a1565b6000808273ffffffffffffffffffffffffffffffffffffffff163b119050919050565b600060019054906101000a900460ff16612729576040517f08c379a00000000000000000000000000000000000000000000000000000000081526004016127209061388f565b60405180910390fd5b6000603360006101000a81548160ff021916908315150217905550565b6127508282611029565b6127df576127758173ffffffffffffffffffffffffffffffffffffffff1660146128aa565b6127838360001c60206128aa565b60405160200161279492919061347b565b6040516020818303038152906040526040517f08c379a00000000000000000000000000000000000000000000000000000000081526004016127d6919061362d565b60405180910390fd5b5050565b6000612845826040518060400160405280602081526020017f5361666545524332303a206c6f772d6c6576656c2063616c6c206661696c65648152508573ffffffffffffffffffffffffffffffffffffffff16612ba49092919063ffffffff16565b90506000815111156128a557808060200190518101906128659190612e55565b6128a4576040517f08c379a000000000000000000000000000000000000000000000000000000000815260040161289b906138af565b60405180910390fd5b5b505050565b6060600060028360026128bd9190613a30565b6128c791906139a9565b67ffffffffffffffff811115612906577f4e487b7100000000000000000000000000000000000000000000000000000000600052604160045260246000fd5b6040519080825280601f01601f1916602001820160405280156129385781602001600182028036833780820191505090505b5090507f300000000000000000000000000000000000000000000000000000000000000081600081518110612996577f4e487b7100000000000000000000000000000000000000000000000000000000600052603260045260246000fd5b60200101907effffffffffffffffffffffffffffffffffffffffffffffffffffffffffffff1916908160001a9053507f780000000000000000000000000000000000000000000000000000000000000081600181518110612a20577f4e487b7100000000000000000000000000000000000000000000000000000000600052603260045260246000fd5b60200101907effffffffffffffffffffffffffffffffffffffffffffffffffffffffffffff1916908160001a90535060006001846002612a609190613a30565b612a6a91906139a9565b90505b6001811115612b56577f3031323334353637383961626364656600000000000000000000000000000000600f861660108110612ad2577f4e487b7100000000000000000000000000000000000000000000000000000000600052603260045260246000fd5b1a60f81b828281518110612b0f577f4e487b7100000000000000000000000000000000000000000000000000000000600052603260045260246000fd5b60200101907effffffffffffffffffffffffffffffffffffffffffffffffffffffffffffff1916908160001a905350600485901c945080612b4f90613ba2565b9050612a6d565b5060008414612b9a576040517f08c379a0000000000000000000000000000000000000000000000000000000008152600401612b919061364f565b60405180910390fd5b8091505092915050565b6060612bb38484600085612bbc565b90509392505050565b606082471015612c01576040517f08c379a0000000000000000000000000000000000000000000000000000000008152600401612bf89061378f565b60405180910390fd5b612c0a856126b7565b612c49576040517f08c379a0000000000000000000000000000000000000000000000000000000008152600401612c409061384f565b60405180910390fd5b6000808673ffffffffffffffffffffffffffffffffffffffff168587604051612c72919061344f565b60006040518083038185875af1925050503d8060008114612caf576040519150601f19603f3d011682016040523d82523d6000602084013e612cb4565b606091505b5091509150612cc4828286612cd0565b92505050949350505050565b60608315612ce057829050612d30565b600083511115612cf35782518084602001fd5b816040517f08c379a0000000000000000000000000000000000000000000000000000000008152600401612d27919061362d565b60405180910390fd5b9392505050565b600081359050612d4681614171565b92915050565b600081519050612d5b81614188565b92915050565b600081359050612d708161419f565b92915050565b600081359050612d85816141b6565b92915050565b600081359050612d9a816141cd565b92915050565b600081519050612daf816141cd565b92915050565b600060208284031215612dc757600080fd5b6000612dd584828501612d37565b91505092915050565b600080600080600060a08688031215612df657600080fd5b6000612e0488828901612d37565b9550506020612e1588828901612d37565b9450506040612e2688828901612d37565b9350506060612e3788828901612d37565b9250506080612e4888828901612d37565b9150509295509295909350565b600060208284031215612e6757600080fd5b6000612e7584828501612d4c565b91505092915050565b600060208284031215612e9057600080fd5b6000612e9e84828501612d61565b91505092915050565b60008060408385031215612eba57600080fd5b6000612ec885828601612d61565b9250506020612ed985828601612d37565b9150509250929050565b600060208284031215612ef557600080fd5b6000612f0384828501612d76565b91505092915050565b600060208284031215612f1e57600080fd5b6000612f2c84828501612d8b565b91505092915050565b600060208284031215612f4757600080fd5b6000612f5584828501612da0565b91505092915050565b6000612f6a83836133f3565b60408301905092915050565b612f7f81613abe565b82525050565b6000612f9082613943565b612f9a8185613971565b9350612fa583613933565b8060005b83811015612fd6578151612fbd8882612f5e565b9750612fc883613964565b925050600181019050612fa9565b5085935050505092915050565b612fec81613ad0565b82525050565b612ffb81613adc565b82525050565b600061300c8261394e565b6130168185613982565b9350613026818560208601613b6f565b80840191505092915050565b61303b81613b5d565b82525050565b600061304c82613959565b613056818561398d565b9350613066818560208601613b6f565b61306f81613ca4565b840191505092915050565b600061308582613959565b61308f818561399e565b935061309f818560208601613b6f565b80840191505092915050565b60006130b860208361398d565b91506130c382613cb5565b602082019050919050565b60006130db60148361398d565b91506130e682613cde565b602082019050919050565b60006130fe60188361398d565b915061310982613d07565b602082019050919050565b6000613121600d8361398d565b915061312c82613d30565b602082019050919050565b6000613144600c8361398d565b915061314f82613d59565b602082019050919050565b600061316760318361398d565b915061317282613d82565b604082019050919050565b600061318a600e8361398d565b915061319582613dd1565b602082019050919050565b60006131ad60168361398d565b91506131b882613dfa565b602082019050919050565b60006131d0603a8361398d565b91506131db82613e23565b604082019050919050565b60006131f3601d8361398d565b91506131fe82613e72565b602082019050919050565b600061321660268361398d565b915061322182613e9b565b604082019050919050565b600061323960168361398d565b915061324482613eea565b602082019050919050565b600061325c60108361398d565b915061326782613f13565b602082019050919050565b600061327f60158361398d565b915061328a82613f3c565b602082019050919050565b60006132a2602e8361398d565b91506132ad82613f65565b604082019050919050565b60006132c5601a8361398d565b91506132d082613fb4565b602082019050919050565b60006132e8600083613982565b91506132f382613fdd565b600082019050919050565b600061330b601d8361398d565b915061331682613fe0565b602082019050919050565b600061332e601a8361398d565b915061333982614009565b602082019050919050565b6000613351602b8361398d565b915061335c82614032565b604082019050919050565b600061337460178361399e565b915061337f82614081565b601782019050919050565b6000613397602a8361398d565b91506133a2826140aa565b604082019050919050565b60006133ba60118361399e565b91506133c5826140f9565b601182019050919050565b60006133dd602f8361398d565b91506133e882614122565b604082019050919050565b6040820160008201516134096000850182613422565b50602082015161341c6020850182613422565b50505050565b61342b81613b32565b82525050565b61343a81613b32565b82525050565b61344981613b3c565b82525050565b600061345b8284613001565b915081905092915050565b6000613471826132db565b9150819050919050565b600061348682613367565b9150613492828561307a565b915061349d826133ad565b91506134a9828461307a565b91508190509392505050565b60006020820190506134ca6000830184612f76565b92915050565b60006080820190506134e56000830187612f76565b6134f26020830186612f76565b6134ff6040830185612f76565b61350c6060830184612f76565b95945050505050565b600060608201905061352a6000830186612f76565b6135376020830185612f76565b6135446040830184613431565b949350505050565b60006080820190506135616000830187612f76565b61356e6020830186612f76565b61357b6040830185613431565b6135886060830184613440565b95945050505050565b60006040820190506135a66000830185612f76565b6135b36020830184613431565b9392505050565b600060208201905081810360008301526135d48184612f85565b905092915050565b60006020820190506135f16000830184612fe3565b92915050565b600060208201905061360c6000830184612ff2565b92915050565b60006020820190506136276000830184613032565b92915050565b600060208201905081810360008301526136478184613041565b905092915050565b60006020820190508181036000830152613668816130ab565b9050919050565b60006020820190508181036000830152613688816130ce565b9050919050565b600060208201905081810360008301526136a8816130f1565b9050919050565b600060208201905081810360008301526136c881613114565b9050919050565b600060208201905081810360008301526136e881613137565b9050919050565b600060208201905081810360008301526137088161315a565b9050919050565b600060208201905081810360008301526137288161317d565b9050919050565b60006020820190508181036000830152613748816131a0565b9050919050565b60006020820190508181036000830152613768816131c3565b9050919050565b60006020820190508181036000830152613788816131e6565b9050919050565b600060208201905081810360008301526137a881613209565b9050919050565b600060208201905081810360008301526137c88161322c565b9050919050565b600060208201905081810360008301526137e88161324f565b9050919050565b6000602082019050818103600083015261380881613272565b9050919050565b6000602082019050818103600083015261382881613295565b9050919050565b60006020820190508181036000830152613848816132b8565b9050919050565b60006020820190508181036000830152613868816132fe565b9050919050565b6000602082019050818103600083015261388881613321565b9050919050565b600060208201905081810360008301526138a881613344565b9050919050565b600060208201905081810360008301526138c88161338a565b9050919050565b600060208201905081810360008301526138e8816133d0565b9050919050565b60006020820190506139046000830184613431565b92915050565b600060408201905061391f6000830185613431565b61392c6020830184613431565b9392505050565b6000819050602082019050919050565b600081519050919050565b600081519050919050565b600081519050919050565b6000602082019050919050565b600082825260208201905092915050565b600081905092915050565b600082825260208201905092915050565b600081905092915050565b60006139b482613b32565b91506139bf83613b32565b9250827fffffffffffffffffffffffffffffffffffffffffffffffffffffffffffffffff038211156139f4576139f3613c46565b5b828201905092915050565b6000613a0a82613b32565b9150613a1583613b32565b925082613a2557613a24613c75565b5b828204905092915050565b6000613a3b82613b32565b9150613a4683613b32565b9250817fffffffffffffffffffffffffffffffffffffffffffffffffffffffffffffffff0483118215151615613a7f57613a7e613c46565b5b828202905092915050565b6000613a9582613b32565b9150613aa083613b32565b925082821015613ab357613ab2613c46565b5b828203905092915050565b6000613ac982613b12565b9050919050565b60008115159050919050565b6000819050919050565b60007fffffffff0000000000000000000000000000000000000000000000000000000082169050919050565b600073ffffffffffffffffffffffffffffffffffffffff82169050919050565b6000819050919050565b600067ffffffffffffffff82169050919050565b600060ff82169050919050565b6000613b6882613b50565b9050919050565b60005b83811015613b8d578082015181840152602081019050613b72565b83811115613b9c576000848401525b50505050565b6000613bad82613b32565b91506000821415613bc157613bc0613c46565b5b600182039050919050565b6000613bd782613b32565b91507fffffffffffffffffffffffffffffffffffffffffffffffffffffffffffffffff821415613c0a57613c09613c46565b5b600182019050919050565b6000613c2082613b32565b9150613c2b83613b32565b925082613c3b57613c3a613c75565b5b828206905092915050565b7f4e487b7100000000000000000000000000000000000000000000000000000000600052601160045260246000fd5b7f4e487b7100000000000000000000000000000000000000000000000000000000600052601260045260246000fd5b6000601f19601f8301169050919050565b7f537472696e67733a20686578206c656e67746820696e73756666696369656e74600082015250565b7f5061757361626c653a206e6f7420706175736564000000000000000000000000600082015250565b7f496e636f727265637420416d6f756e74206f662046756e640000000000000000600082015250565b7f496e76616c696420696e64657800000000000000000000000000000000000000600082015250565b7f496e76616c696420555549440000000000000000000000000000000000000000600082015250565b7f52657175697265204d6f72652052656c6179204665652c20436865636b20676560008201527f74546f6b656e48756252656c6179466565000000000000000000000000000000602082015250565b7f496e76616c696420416d6f756e74000000000000000000000000000000000000600082015250565b7f4e6f205265717565737420746f20776974686472617700000000000000000000600082015250565b7f416464726573733a20756e61626c6520746f2073656e642076616c75652c207260008201527f6563697069656e74206d61792068617665207265766572746564000000000000602082015250565b7f416464726573733a20696e73756666696369656e742062616c616e6365000000600082015250565b7f416464726573733a20696e73756666696369656e742062616c616e636520666f60008201527f722063616c6c0000000000000000000000000000000000000000000000000000602082015250565b7f4e6f206d6f72652066756e647320746f207374616b6500000000000000000000600082015250565b7f5061757361626c653a2070617573656400000000000000000000000000000000600082015250565b7f4e6f742061626c6520746f20636c61696d207965740000000000000000000000600082015250565b7f496e697469616c697a61626c653a20636f6e747261637420697320616c72656160008201527f647920696e697469616c697a6564000000000000000000000000000000000000602082015250565b7f4f6c642061646472657373203d3d206e65772061646472657373000000000000600082015250565b50565b7f416464726573733a2063616c6c20746f206e6f6e2d636f6e7472616374000000600082015250565b7f4e6f7420656e6f75676820424e4220746f207769746864726177000000000000600082015250565b7f496e697469616c697a61626c653a20636f6e7472616374206973206e6f74206960008201527f6e697469616c697a696e67000000000000000000000000000000000000000000602082015250565b7f416363657373436f6e74726f6c3a206163636f756e7420000000000000000000600082015250565b7f5361666545524332303a204552433230206f7065726174696f6e20646964206e60008201527f6f74207375636365656400000000000000000000000000000000000000000000602082015250565b7f206973206d697373696e6720726f6c6520000000000000000000000000000000600082015250565b7f416363657373436f6e74726f6c3a2063616e206f6e6c792072656e6f756e636560008201527f20726f6c657320666f722073656c660000000000000000000000000000000000602082015250565b61417a81613abe565b811461418557600080fd5b50565b61419181613ad0565b811461419c57600080fd5b50565b6141a881613adc565b81146141b357600080fd5b50565b6141bf81613ae6565b81146141ca57600080fd5b50565b6141d681613b32565b81146141e157600080fd5b5056fea2646970667358221220d76675e324f9e00c62cefdd4331dbf6627cba4557861a3b7e3f1a3bc88b51b4864736f6c63430008040033",
  "linkReferences": {},
  "deployedLinkReferences": {}
}