{
  "_format": "hh-sol-artifact-1",
  "contractName": "StakeManager",
  "sourceName": "contracts/StakeManager.sol",
  "abi": [
    {
      "anonymous": false,
      "inputs": [
        {
          "indexed": true,
          "internalType": "address",
          "name": "_account",
          "type": "address"
        },
        {
          "indexed": false,
          "internalType": "uint256",
          "name": "_idx",
          "type": "uint256"
        },
        {
          "indexed": false,
          "internalType": "uint256",
          "name": "_amount",
          "type": "uint256"
        }
      ],
      "name": "ClaimWithdrawal",
      "type": "event"
    },
    {
      "anonymous": false,
      "inputs": [
        {
          "indexed": false,
          "internalType": "uint256",
          "name": "uuid",
          "type": "uint256"
        },
        {
          "indexed": false,
          "internalType": "uint256",
          "name": "amount",
          "type": "uint256"
        }
      ],
      "name": "Delegate",
      "type": "event"
    },
    {
      "anonymous": false,
      "inputs": [
        {
          "indexed": false,
          "internalType": "uint8",
          "name": "version",
          "type": "uint8"
        }
      ],
      "name": "Initialized",
      "type": "event"
    },
    {
      "anonymous": false,
      "inputs": [
        {
          "indexed": false,
          "internalType": "address",
          "name": "account",
          "type": "address"
        }
      ],
      "name": "Paused",
      "type": "event"
    },
    {
      "anonymous": false,
      "inputs": [
        {
          "indexed": true,
          "internalType": "address",
          "name": "_account",
          "type": "address"
        },
        {
          "indexed": false,
          "internalType": "uint256",
          "name": "_amountBnbX",
          "type": "uint256"
        },
        {
          "indexed": false,
          "internalType": "uint256",
          "name": "_amountBnb",
          "type": "uint256"
        }
      ],
      "name": "RequestWithdraw",
      "type": "event"
    },
    {
      "anonymous": false,
      "inputs": [
        {
          "indexed": true,
          "internalType": "bytes32",
          "name": "role",
          "type": "bytes32"
        },
        {
          "indexed": true,
          "internalType": "bytes32",
          "name": "previousAdminRole",
          "type": "bytes32"
        },
        {
          "indexed": true,
          "internalType": "bytes32",
          "name": "newAdminRole",
          "type": "bytes32"
        }
      ],
      "name": "RoleAdminChanged",
      "type": "event"
    },
    {
      "anonymous": false,
      "inputs": [
        {
          "indexed": true,
          "internalType": "bytes32",
          "name": "role",
          "type": "bytes32"
        },
        {
          "indexed": true,
          "internalType": "address",
          "name": "account",
          "type": "address"
        },
        {
          "indexed": true,
          "internalType": "address",
          "name": "sender",
          "type": "address"
        }
      ],
      "name": "RoleGranted",
      "type": "event"
    },
    {
      "anonymous": false,
      "inputs": [
        {
          "indexed": true,
          "internalType": "bytes32",
          "name": "role",
          "type": "bytes32"
        },
        {
          "indexed": true,
          "internalType": "address",
          "name": "account",
          "type": "address"
        },
        {
          "indexed": true,
          "internalType": "address",
          "name": "sender",
          "type": "address"
        }
      ],
      "name": "RoleRevoked",
      "type": "event"
    },
    {
      "anonymous": false,
      "inputs": [
        {
          "indexed": true,
          "internalType": "address",
          "name": "_address",
          "type": "address"
        }
      ],
      "name": "SetBotAddress",
      "type": "event"
    },
    {
      "anonymous": false,
      "inputs": [
        {
          "indexed": false,
          "internalType": "uint256",
          "name": "amount",
          "type": "uint256"
        }
      ],
      "name": "TransferOut",
      "type": "event"
    },
    {
      "anonymous": false,
      "inputs": [
        {
          "indexed": false,
          "internalType": "uint256",
          "name": "uuid",
          "type": "uint256"
        },
        {
          "indexed": false,
          "internalType": "uint256",
          "name": "amount",
          "type": "uint256"
        }
      ],
      "name": "Undelegate",
      "type": "event"
    },
    {
      "anonymous": false,
      "inputs": [
        {
          "indexed": false,
          "internalType": "address",
          "name": "account",
          "type": "address"
        }
      ],
      "name": "Unpaused",
      "type": "event"
    },
    {
      "inputs": [],
      "name": "BOT",
      "outputs": [
        {
          "internalType": "bytes32",
          "name": "",
          "type": "bytes32"
        }
      ],
      "stateMutability": "view",
      "type": "function"
    },
    {
      "inputs": [],
      "name": "DEFAULT_ADMIN_ROLE",
      "outputs": [
        {
          "internalType": "bytes32",
          "name": "",
          "type": "bytes32"
        }
      ],
      "stateMutability": "view",
      "type": "function"
    },
    {
      "inputs": [],
      "name": "TEN_DECIMALS",
      "outputs": [
        {
          "internalType": "uint256",
          "name": "",
          "type": "uint256"
        }
      ],
      "stateMutability": "view",
      "type": "function"
    },
    {
      "inputs": [
        {
          "internalType": "uint256",
          "name": "_idx",
          "type": "uint256"
        }
      ],
      "name": "claimWithdraw",
      "outputs": [],
      "stateMutability": "nonpayable",
      "type": "function"
    },
    {
      "inputs": [
        {
          "internalType": "uint256",
          "name": "uuid",
          "type": "uint256"
        }
      ],
      "name": "completeDelegation",
      "outputs": [],
      "stateMutability": "nonpayable",
      "type": "function"
    },
    {
      "inputs": [
        {
          "internalType": "uint256",
          "name": "_uuid",
          "type": "uint256"
        }
      ],
      "name": "completeUndelegation",
      "outputs": [],
      "stateMutability": "payable",
      "type": "function"
    },
    {
      "inputs": [
        {
          "internalType": "uint256",
          "name": "_amount",
          "type": "uint256"
        }
      ],
      "name": "convertBnbToBnbX",
      "outputs": [
        {
          "internalType": "uint256",
          "name": "",
          "type": "uint256"
        }
      ],
      "stateMutability": "view",
      "type": "function"
    },
    {
      "inputs": [
        {
          "internalType": "uint256",
          "name": "_amount",
          "type": "uint256"
        }
      ],
      "name": "convertBnbXToBnb",
      "outputs": [
        {
          "internalType": "uint256",
          "name": "",
          "type": "uint256"
        }
      ],
      "stateMutability": "view",
      "type": "function"
    },
    {
      "inputs": [],
      "name": "deposit",
      "outputs": [],
      "stateMutability": "payable",
      "type": "function"
    },
    {
      "inputs": [
        {
          "internalType": "uint256",
          "name": "uuid",
          "type": "uint256"
        }
      ],
      "name": "getBotDelegateRequest",
      "outputs": [
        {
          "components": [
            {
              "internalType": "uint256",
              "name": "startTime",
              "type": "uint256"
            },
            {
              "internalType": "uint256",
              "name": "endTime",
              "type": "uint256"
            },
            {
              "internalType": "uint256",
              "name": "amount",
              "type": "uint256"
            }
          ],
          "internalType": "struct IStakeManager.BotDelegateRequest",
          "name": "",
          "type": "tuple"
        }
      ],
      "stateMutability": "view",
      "type": "function"
    },
    {
      "inputs": [
        {
          "internalType": "uint256",
          "name": "uuid",
          "type": "uint256"
        }
      ],
      "name": "getBotUndelegateRequest",
      "outputs": [
        {
          "components": [
            {
              "internalType": "uint256",
              "name": "startTime",
              "type": "uint256"
            },
            {
              "internalType": "uint256",
              "name": "endTime",
              "type": "uint256"
            },
            {
              "internalType": "uint256",
              "name": "amount",
              "type": "uint256"
            }
          ],
          "internalType": "struct IStakeManager.BotUndelegateRequest",
          "name": "",
          "type": "tuple"
        }
      ],
      "stateMutability": "view",
      "type": "function"
    },
    {
      "inputs": [],
      "name": "getContracts",
      "outputs": [
        {
          "internalType": "address",
          "name": "_bnbX",
          "type": "address"
        },
        {
          "internalType": "address",
          "name": "_tokenHub",
          "type": "address"
        },
        {
          "internalType": "address",
          "name": "_bcDepositWallet",
          "type": "address"
        },
        {
          "internalType": "address",
          "name": "_bot",
          "type": "address"
        }
      ],
      "stateMutability": "view",
      "type": "function"
    },
    {
      "inputs": [
        {
          "internalType": "bytes32",
          "name": "role",
          "type": "bytes32"
        }
      ],
      "name": "getRoleAdmin",
      "outputs": [
        {
          "internalType": "bytes32",
          "name": "",
          "type": "bytes32"
        }
      ],
      "stateMutability": "view",
      "type": "function"
    },
    {
      "inputs": [],
      "name": "getTokenHubRelayFee",
      "outputs": [
        {
          "internalType": "uint256",
          "name": "",
          "type": "uint256"
        }
      ],
      "stateMutability": "view",
      "type": "function"
    },
    {
      "inputs": [
        {
          "internalType": "address",
          "name": "_address",
          "type": "address"
        }
      ],
      "name": "getUserWithdrawalRequests",
      "outputs": [
        {
          "components": [
            {
              "internalType": "uint256",
              "name": "uuid",
              "type": "uint256"
            },
            {
              "internalType": "uint256",
              "name": "amount",
              "type": "uint256"
            }
          ],
          "internalType": "struct IStakeManager.WithdrawalRequest[]",
          "name": "",
          "type": "tuple[]"
        }
      ],
      "stateMutability": "view",
      "type": "function"
    },
    {
      "inputs": [
        {
          "internalType": "bytes32",
          "name": "role",
          "type": "bytes32"
        },
        {
          "internalType": "address",
          "name": "account",
          "type": "address"
        }
      ],
      "name": "grantRole",
      "outputs": [],
      "stateMutability": "nonpayable",
      "type": "function"
    },
    {
      "inputs": [
        {
          "internalType": "bytes32",
          "name": "role",
          "type": "bytes32"
        },
        {
          "internalType": "address",
          "name": "account",
          "type": "address"
        }
      ],
      "name": "hasRole",
      "outputs": [
        {
          "internalType": "bool",
          "name": "",
          "type": "bool"
        }
      ],
      "stateMutability": "view",
      "type": "function"
    },
    {
      "inputs": [
        {
          "internalType": "address",
          "name": "_bnbX",
          "type": "address"
        },
        {
          "internalType": "address",
          "name": "_manager",
          "type": "address"
        },
        {
          "internalType": "address",
          "name": "_tokenHub",
          "type": "address"
        },
        {
          "internalType": "address",
          "name": "_bcDepositWallet",
          "type": "address"
        },
        {
          "internalType": "address",
          "name": "_bot",
          "type": "address"
        }
      ],
      "name": "initialize",
      "outputs": [],
      "stateMutability": "nonpayable",
      "type": "function"
    },
    {
      "inputs": [],
      "name": "paused",
      "outputs": [
        {
          "internalType": "bool",
          "name": "",
          "type": "bool"
        }
      ],
      "stateMutability": "view",
      "type": "function"
    },
    {
      "inputs": [
        {
          "internalType": "bytes32",
          "name": "role",
          "type": "bytes32"
        },
        {
          "internalType": "address",
          "name": "account",
          "type": "address"
        }
      ],
      "name": "renounceRole",
      "outputs": [],
      "stateMutability": "nonpayable",
      "type": "function"
    },
    {
      "inputs": [
        {
          "internalType": "uint256",
          "name": "_amount",
          "type": "uint256"
        }
      ],
      "name": "requestWithdraw",
      "outputs": [],
      "stateMutability": "nonpayable",
      "type": "function"
    },
    {
      "inputs": [
        {
          "internalType": "bytes32",
          "name": "role",
          "type": "bytes32"
        },
        {
          "internalType": "address",
          "name": "account",
          "type": "address"
        }
      ],
      "name": "revokeRole",
      "outputs": [],
      "stateMutability": "nonpayable",
      "type": "function"
    },
    {
      "inputs": [
        {
          "internalType": "address",
          "name": "_address",
          "type": "address"
        }
      ],
      "name": "setBotAddress",
      "outputs": [],
      "stateMutability": "nonpayable",
      "type": "function"
    },
    {
      "inputs": [],
      "name": "startDelegation",
      "outputs": [
        {
          "internalType": "uint256",
          "name": "_uuid",
          "type": "uint256"
        },
        {
          "internalType": "uint256",
          "name": "_amount",
          "type": "uint256"
        }
      ],
      "stateMutability": "payable",
      "type": "function"
    },
    {
      "inputs": [],
      "name": "startUndelegation",
      "outputs": [
        {
          "internalType": "uint256",
          "name": "_uuid",
          "type": "uint256"
        },
        {
          "internalType": "uint256",
          "name": "_amount",
          "type": "uint256"
        }
      ],
      "stateMutability": "nonpayable",
      "type": "function"
    },
    {
      "inputs": [
        {
          "internalType": "bytes4",
          "name": "interfaceId",
          "type": "bytes4"
        }
      ],
      "name": "supportsInterface",
      "outputs": [
        {
          "internalType": "bool",
          "name": "",
          "type": "bool"
        }
      ],
      "stateMutability": "view",
      "type": "function"
    },
    {
      "inputs": [],
      "name": "togglePause",
      "outputs": [],
      "stateMutability": "nonpayable",
      "type": "function"
    },
    {
      "inputs": [],
      "name": "totalBnbToWithdraw",
      "outputs": [
        {
          "internalType": "uint256",
          "name": "",
          "type": "uint256"
        }
      ],
      "stateMutability": "view",
      "type": "function"
    },
    {
      "inputs": [],
      "name": "totalBnbXToBurn",
      "outputs": [
        {
          "internalType": "uint256",
          "name": "",
          "type": "uint256"
        }
      ],
      "stateMutability": "view",
      "type": "function"
    },
    {
      "inputs": [],
      "name": "totalDeposited",
      "outputs": [
        {
          "internalType": "uint256",
          "name": "",
          "type": "uint256"
        }
      ],
      "stateMutability": "view",
      "type": "function"
    },
    {
      "inputs": [],
      "name": "totalOutBuffer",
      "outputs": [
        {
          "internalType": "uint256",
          "name": "",
          "type": "uint256"
        }
      ],
      "stateMutability": "view",
      "type": "function"
    },
    {
      "inputs": [],
      "name": "totalRedelegated",
      "outputs": [
        {
          "internalType": "uint256",
          "name": "",
          "type": "uint256"
        }
      ],
      "stateMutability": "view",
      "type": "function"
    },
    {
      "inputs": [],
      "name": "totalUnstaked",
      "outputs": [
        {
          "internalType": "uint256",
          "name": "",
          "type": "uint256"
        }
      ],
      "stateMutability": "view",
      "type": "function"
    }
  ],
  "bytecode": "0x608060405234801561001057600080fd5b5061443c806100206000396000f3fe6080604052600436106101ee5760003560e01c8063a217fddf1161010d578063ca0506e8116100a0578063e0c295991161006f578063e0c29599146106c8578063ed5857b9146106f4578063f844e29b1461071f578063fd33cb2d1461074a578063ff50abdc14610787576101ee565b8063ca0506e81461061b578063ca13fb4114610658578063d0e30db014610695578063d547741f1461069f576101ee565b8063b3d4fb70116100dc578063b3d4fb7014610582578063ba2600a9146105ad578063c3a2a93a146105d6578063c4ae316814610604576101ee565b8063a217fddf146104f3578063a21cfbc11461051e578063ae03ce751461053a578063b13acedd14610559576101ee565b8063486277f6116101855780636c930228116101545780636c93022814610425578063745400c91461046257806391d148541461048b57806396f71e98146104c8576101ee565b8063486277f6146103795780635235934d146103a45780635c975abb146103cf5780635d499b1b146103fa576101ee565b8063248a9ca3116101c1578063248a9ca3146102c15780632d4f40c6146102fe5780632f2ff15d1461032757806336568abe14610350576101ee565b806301ffc9a7146101f3578063109b87a0146102305780631459457a1461025b57806318bc833d14610284575b600080fd5b3480156101ff57600080fd5b5061021a6004803603810190610215919061304b565b6107b2565b60405161022791906137c8565b60405180910390f35b34801561023c57600080fd5b5061024561082c565b6040516102529190613b11565b60405180910390f35b34801561026757600080fd5b50610282600480360381019061027d9190612f46565b610832565b005b34801561029057600080fd5b506102ab60048036038101906102a69190613074565b610a0e565b6040516102b89190613b11565b60405180910390f35b3480156102cd57600080fd5b506102e860048036038101906102e39190612fe6565b610b0b565b6040516102f591906137e3565b60405180910390f35b34801561030a57600080fd5b5061032560048036038101906103209190612f1d565b610b2b565b005b34801561033357600080fd5b5061034e6004803603810190610349919061300f565b610cc7565b005b34801561035c57600080fd5b506103776004803603810190610372919061300f565b610ce8565b005b34801561038557600080fd5b5061038e610d6b565b60405161039b91906137e3565b60405180910390f35b3480156103b057600080fd5b506103b9610d8f565b6040516103c69190613b11565b60405180910390f35b3480156103db57600080fd5b506103e4610d95565b6040516103f191906137c8565b60405180910390f35b34801561040657600080fd5b5061040f610dac565b60405161041c9190613b11565b60405180910390f35b34801561043157600080fd5b5061044c60048036038101906104479190612f1d565b610db5565b60405161045991906137a6565b60405180910390f35b34801561046e57600080fd5b5061048960048036038101906104849190613074565b610e67565b005b34801561049757600080fd5b506104b260048036038101906104ad919061300f565b6110b9565b6040516104bf91906137c8565b60405180910390f35b3480156104d457600080fd5b506104dd611124565b6040516104ea9190613b11565b60405180910390f35b3480156104ff57600080fd5b5061050861112a565b60405161051591906137e3565b60405180910390f35b61053860048036038101906105339190613074565b611131565b005b6105426112d4565b604051610550929190613b2c565b60405180910390f35b34801561056557600080fd5b50610580600480360381019061057b9190613074565b6115e4565b005b34801561058e57600080fd5b5061059761190b565b6040516105a49190613b11565b60405180910390f35b3480156105b957600080fd5b506105d460048036038101906105cf9190613074565b611911565b005b3480156105e257600080fd5b506105eb611a8b565b6040516105fb94939291906136bc565b60405180910390f35b34801561061057600080fd5b50610619611b2b565b005b34801561062757600080fd5b50610642600480360381019061063d9190613074565b611b5d565b60405161064f9190613b11565b60405180910390f35b34801561066457600080fd5b5061067f600480360381019061067a9190613074565b611c5a565b60405161068c9190613af6565b60405180910390f35b61069d611ca5565b005b3480156106ab57600080fd5b506106c660048036038101906106c1919061300f565b611e07565b005b3480156106d457600080fd5b506106dd611e28565b6040516106eb929190613b2c565b60405180910390f35b34801561070057600080fd5b50610709612015565b6040516107169190613b11565b60405180910390f35b34801561072b57600080fd5b5061073461201b565b6040516107419190613b11565b60405180910390f35b34801561075657600080fd5b50610771600480360381019061076c9190613074565b6120c2565b60405161077e9190613adb565b60405180910390f35b34801561079357600080fd5b5061079c61210d565b6040516107a99190613b11565b60405180910390f35b60007f7965db0b000000000000000000000000000000000000000000000000000000007bffffffffffffffffffffffffffffffffffffffffffffffffffffffff1916827bffffffffffffffffffffffffffffffffffffffffffffffffffffffff19161480610825575061082482612113565b5b9050919050565b60cc5481565b600061083e600161217d565b90508015610862576001600060016101000a81548160ff0219169083151502179055505b61086a61226d565b6108726122be565b61087f6000801b86612317565b6108a97f902cbe3a02736af9827fb6a90bada39e955c0941e08f0c63b3a662a7b17a4e2b83612317565b8560cf60006101000a81548173ffffffffffffffffffffffffffffffffffffffff021916908373ffffffffffffffffffffffffffffffffffffffff1602179055508360d160006101000a81548173ffffffffffffffffffffffffffffffffffffffff021916908373ffffffffffffffffffffffffffffffffffffffff1602179055508260d060006101000a81548173ffffffffffffffffffffffffffffffffffffffff021916908373ffffffffffffffffffffffffffffffffffffffff1602179055508160d260006101000a81548173ffffffffffffffffffffffffffffffffffffffff021916908373ffffffffffffffffffffffffffffffffffffffff1602179055508015610a065760008060016101000a81548160ff0219169083151502179055507f7f26b83ff96e1f2b6a682f133852f6798a09c465da95921460cefb384740249860016040516109fd91906137fe565b60405180910390a15b505050505050565b60008060cf60009054906101000a900473ffffffffffffffffffffffffffffffffffffffff1673ffffffffffffffffffffffffffffffffffffffff166318160ddd6040518163ffffffff1660e01b815260040160206040518083038186803b158015610a7957600080fd5b505afa158015610a8d573d6000803e3d6000fd5b505050506040513d601f19601f82011682018060405250810190610ab1919061309d565b905060008114610ac15780610ac4565b60015b90506000610ad0612325565b905060008114610ae05780610ae3565b60015b90506000818386610af49190613c52565b610afe9190613c21565b9050809350505050919050565b600060976000838152602001908152602001600020600101549050919050565b6000801b610b388161233c565b8173ffffffffffffffffffffffffffffffffffffffff1660d260009054906101000a900473ffffffffffffffffffffffffffffffffffffffff1673ffffffffffffffffffffffffffffffffffffffff161415610bc9576040517f08c379a0000000000000000000000000000000000000000000000000000000008152600401610bc090613a1b565b60405180910390fd5b610c157f902cbe3a02736af9827fb6a90bada39e955c0941e08f0c63b3a662a7b17a4e2b60d260009054906101000a900473ffffffffffffffffffffffffffffffffffffffff16612350565b8160d260006101000a81548173ffffffffffffffffffffffffffffffffffffffff021916908373ffffffffffffffffffffffffffffffffffffffff160217905550610c807f902cbe3a02736af9827fb6a90bada39e955c0941e08f0c63b3a662a7b17a4e2b83612317565b8173ffffffffffffffffffffffffffffffffffffffff167f2cd94ba4871010f71a171b6b56ea21e121548f2831b1cdadcd2eb9cf7daada8760405160405180910390a25050565b610cd082610b0b565b610cd98161233c565b610ce38383612432565b505050565b610cf0612513565b73ffffffffffffffffffffffffffffffffffffffff168173ffffffffffffffffffffffffffffffffffffffff1614610d5d576040517f08c379a0000000000000000000000000000000000000000000000000000000008152600401610d5490613abb565b60405180910390fd5b610d678282612350565b5050565b7f902cbe3a02736af9827fb6a90bada39e955c0941e08f0c63b3a662a7b17a4e2b81565b60ca5481565b6000603360009054906101000a900460ff16905090565b6402540be40081565b606060d560008373ffffffffffffffffffffffffffffffffffffffff1673ffffffffffffffffffffffffffffffffffffffff168152602001908152602001600020805480602002602001604051908101604052809291908181526020016000905b82821015610e5c57838290600052602060002090600202016040518060400160405290816000820154815260200160018201548152505081526020019060010190610e16565b505050509050919050565b610e6f610d95565b15610eaf576040517f08c379a0000000000000000000000000000000000000000000000000000000008152600401610ea6906139bb565b60405180910390fd5b60008111610ef2576040517f08c379a0000000000000000000000000000000000000000000000000000000008152600401610ee9906138fb565b60405180910390fd5b6000610efd82611b5d565b9050610f4e33308460cf60009054906101000a900473ffffffffffffffffffffffffffffffffffffffff1673ffffffffffffffffffffffffffffffffffffffff1661251b909392919063ffffffff16565b6000610f58612325565b905080821115610f9d576040517f08c379a0000000000000000000000000000000000000000000000000000000008152600401610f9490613a5b565b60405180910390fd5b8160cd6000828254610faf9190613bcb565b925050819055508260ce6000828254610fc89190613bcb565b9250508190555060d560003373ffffffffffffffffffffffffffffffffffffffff1673ffffffffffffffffffffffffffffffffffffffff168152602001908152602001600020604051806040016040528060d7548152602001848152509080600181540180825580915050600190039060005260206000209060020201600090919091909150600082015181600001556020820151816001015550503373ffffffffffffffffffffffffffffffffffffffff167febeaa8785285a4f7c37a305351997dceebabc3c357dab98023dc37514a1b6ed684846040516110ac929190613b2c565b60405180910390a2505050565b60006097600084815260200190815260200160002060000160008373ffffffffffffffffffffffffffffffffffffffff1673ffffffffffffffffffffffffffffffffffffffff16815260200190815260200160002060009054906101000a900460ff16905092915050565b60ce5481565b6000801b81565b611139610d95565b15611179576040517f08c379a0000000000000000000000000000000000000000000000000000000008152600401611170906139bb565b60405180910390fd5b7f902cbe3a02736af9827fb6a90bada39e955c0941e08f0c63b3a662a7b17a4e2b6111a38161233c565b600060d46000848152602001908152602001600020600201541180156111df5750600060d4600084815260200190815260200160002060010154145b61121e576040517f08c379a0000000000000000000000000000000000000000000000000000000008152600401611215906138bb565b60405180910390fd5b600034905060d4600084815260200190815260200160002060020154811461127b576040517f08c379a00000000000000000000000000000000000000000000000000000000081526004016112729061387b565b60405180910390fd5b4260d46000858152602001908152602001600020600101819055507ffdbb8c003d20bab9656233805edff5b59deada55ab94383f586c5b781b87c38d83826040516112c7929190613b2c565b60405180910390a1505050565b6000806112df610d95565b1561131f576040517f08c379a0000000000000000000000000000000000000000000000000000000008152600401611316906139bb565b60405180910390fd5b7f902cbe3a02736af9827fb6a90bada39e955c0941e08f0c63b3a662a7b17a4e2b6113498161233c565b600061135361201b565b9050600034905060006402540be40060ca5461136f9190613e37565b60ca5461137c9190613cac565b9050828210156113c1576040517f08c379a00000000000000000000000000000000000000000000000000000000081526004016113b8906138db565b60405180910390fd5b60008111611404576040517f08c379a00000000000000000000000000000000000000000000000000000000081526004016113fb9061399b565b60405180910390fd5b6040518060600160405280428152602001600081526020018281525060d3600060d6600081548092919061143790613dee565b9190505581526020019081526020016000206000820151816000015560208201518160010155604082015181600201559050508060cb600082825461147c9190613bcb565b925050819055508060ca60008282546114959190613cac565b9250508190555060006078426114ab9190613bcb565b905060d160009054906101000a900473ffffffffffffffffffffffffffffffffffffffff1673ffffffffffffffffffffffffffffffffffffffff1663aa7415f584846114f79190613bcb565b600060d060009054906101000a900473ffffffffffffffffffffffffffffffffffffffff1686866040518663ffffffff1660e01b815260040161153d9493929190613738565b6020604051808303818588803b15801561155657600080fd5b505af115801561156a573d6000803e3d6000fd5b50505050506040513d601f19601f8201168201806040525081019061158f9190612fbd565b507fd70b6c02a759efec11d337171af1905f9f88902e3ce939869591e0bbe686dc6a826040516115bf9190613b11565b60405180910390a1600160d6546115d69190613cac565b965081955050505050509091565b6115ec610d95565b1561162c576040517f08c379a0000000000000000000000000000000000000000000000000000000008152600401611623906139bb565b60405180910390fd5b6000339050600060d560008373ffffffffffffffffffffffffffffffffffffffff1673ffffffffffffffffffffffffffffffffffffffff1681526020019081526020016000209050808054905083106116ba576040517f08c379a00000000000000000000000000000000000000000000000000000000081526004016116b19061389b565b60405180910390fd5b60008184815481106116f5577f4e487b7100000000000000000000000000000000000000000000000000000000600052603260045260246000fd5b9060005260206000209060020201604051806040016040529081600082015481526020016001820154815250509050600081600001519050600082602001519050600060d46000848152602001908152602001600020600101541415611790576040517f08c379a0000000000000000000000000000000000000000000000000000000008152600401611787906139db565b60405180910390fd5b83600185805490506117a29190613cac565b815481106117d9577f4e487b7100000000000000000000000000000000000000000000000000000000600052603260045260246000fd5b9060005260206000209060020201848781548110611820577f4e487b7100000000000000000000000000000000000000000000000000000000600052603260045260246000fd5b906000526020600020906002020160008201548160000155600182015481600101559050508380548061187c577f4e487b7100000000000000000000000000000000000000000000000000000000600052603160045260246000fd5b60019003818190600052602060002090600202016000808201600090556001820160009055505090556118af85826125a4565b8473ffffffffffffffffffffffffffffffffffffffff167f63bfb3a58e0713d68e49dda62c223fab04fb534eeef8ac6356cec78e691c092a8785602001516040516118fb929190613b2c565b60405180910390a2505050505050565b60cb5481565b611919610d95565b15611959576040517f08c379a0000000000000000000000000000000000000000000000000000000008152600401611950906139bb565b60405180910390fd5b7f902cbe3a02736af9827fb6a90bada39e955c0941e08f0c63b3a662a7b17a4e2b6119838161233c565b600060d36000848152602001908152602001600020600201541180156119bf5750600060d3600084815260200190815260200160002060010154145b6119fe576040517f08c379a00000000000000000000000000000000000000000000000000000000081526004016119f5906138bb565b60405180910390fd5b4260d3600084815260200190815260200160002060010181905550600060d360008481526020019081526020016000206002015490508060cb6000828254611a469190613cac565b925050819055507f8f0a6a275be31c643d9ad67b6710ba8b13d370aeefbaec4c1d1f2ce1f8ed055b8382604051611a7e929190613b2c565b60405180910390a1505050565b60008060008060cf60009054906101000a900473ffffffffffffffffffffffffffffffffffffffff16935060d160009054906101000a900473ffffffffffffffffffffffffffffffffffffffff16925060d060009054906101000a900473ffffffffffffffffffffffffffffffffffffffff16915060d260009054906101000a900473ffffffffffffffffffffffffffffffffffffffff16905090919293565b6000801b611b388161233c565b611b40610d95565b611b5157611b4c612698565b611b5a565b611b5961273b565b5b50565b60008060cf60009054906101000a900473ffffffffffffffffffffffffffffffffffffffff1673ffffffffffffffffffffffffffffffffffffffff166318160ddd6040518163ffffffff1660e01b815260040160206040518083038186803b158015611bc857600080fd5b505afa158015611bdc573d6000803e3d6000fd5b505050506040513d601f19601f82011682018060405250810190611c00919061309d565b905060008114611c105780611c13565b60015b90506000611c1f612325565b905060008114611c2f5780611c32565b60015b90506000828286611c439190613c52565b611c4d9190613c21565b9050809350505050919050565b611c62612e5d565b60d4600083815260200190815260200160002060405180606001604052908160008201548152602001600182015481526020016002820154815250509050919050565b611cad610d95565b15611ced576040517f08c379a0000000000000000000000000000000000000000000000000000000008152600401611ce4906139bb565b60405180910390fd5b600034905060008111611d35576040517f08c379a0000000000000000000000000000000000000000000000000000000008152600401611d2c906138fb565b60405180910390fd5b6000611d4082610a0e565b90508160c96000828254611d549190613bcb565b925050819055508160ca6000828254611d6d9190613bcb565b9250508190555060cf60009054906101000a900473ffffffffffffffffffffffffffffffffffffffff1673ffffffffffffffffffffffffffffffffffffffff166340c10f1933836040518363ffffffff1660e01b8152600401611dd192919061377d565b600060405180830381600087803b158015611deb57600080fd5b505af1158015611dff573d6000803e3d6000fd5b505050505050565b611e1082610b0b565b611e198161233c565b611e238383612350565b505050565b600080611e33610d95565b15611e73576040517f08c379a0000000000000000000000000000000000000000000000000000000008152600401611e6a906139bb565b60405180910390fd5b7f902cbe3a02736af9827fb6a90bada39e955c0941e08f0c63b3a662a7b17a4e2b611e9d8161233c565b600060cd5411611ee2576040517f08c379a0000000000000000000000000000000000000000000000000000000008152600401611ed99061391b565b60405180910390fd5b60d76000815480929190611ef590613dee565b91905055925060cd5491506040518060600160405280428152602001600081526020018381525060d460008581526020019081526020016000206000820151816000015560208201518160010155604082015181600201559050508160c96000828254611f629190613cac565b92505081905550600060ce549050600060ce81905550600060cd8190555060cf60009054906101000a900473ffffffffffffffffffffffffffffffffffffffff1673ffffffffffffffffffffffffffffffffffffffff16639dc29fac30836040518363ffffffff1660e01b8152600401611fdd92919061377d565b600060405180830381600087803b158015611ff757600080fd5b505af115801561200b573d6000803e3d6000fd5b5050505050509091565b60cd5481565b600060d160009054906101000a900473ffffffffffffffffffffffffffffffffffffffff1673ffffffffffffffffffffffffffffffffffffffff166371d308636040518163ffffffff1660e01b815260040160206040518083038186803b15801561208557600080fd5b505afa158015612099573d6000803e3d6000fd5b505050506040513d601f19601f820116820180604052508101906120bd919061309d565b905090565b6120ca612e7e565b60d3600083815260200190815260200160002060405180606001604052908160008201548152602001600182015481526020016002820154815250509050919050565b60c95481565b60007f01ffc9a7000000000000000000000000000000000000000000000000000000007bffffffffffffffffffffffffffffffffffffffffffffffffffffffff1916827bffffffffffffffffffffffffffffffffffffffffffffffffffffffff1916149050919050565b60008060019054906101000a900460ff16156121f45760018260ff161480156121ac57506121aa306127dd565b155b6121eb576040517f08c379a00000000000000000000000000000000000000000000000000000000081526004016121e2906139fb565b60405180910390fd5b60009050612268565b8160ff1660008054906101000a900460ff1660ff1610612249576040517f08c379a0000000000000000000000000000000000000000000000000000000008152600401612240906139fb565b60405180910390fd5b816000806101000a81548160ff021916908360ff160217905550600190505b919050565b600060019054906101000a900460ff166122bc576040517f08c379a00000000000000000000000000000000000000000000000000000000081526004016122b390613a7b565b60405180910390fd5b565b600060019054906101000a900460ff1661230d576040517f08c379a000000000000000000000000000000000000000000000000000000000815260040161230490613a7b565b60405180910390fd5b612315612800565b565b6123218282612432565b5050565b600060cc5460c9546123379190613bcb565b905090565b61234d81612348612513565b61286c565b50565b61235a82826110b9565b1561242e5760006097600084815260200190815260200160002060000160008373ffffffffffffffffffffffffffffffffffffffff1673ffffffffffffffffffffffffffffffffffffffff16815260200190815260200160002060006101000a81548160ff0219169083151502179055506123d3612513565b73ffffffffffffffffffffffffffffffffffffffff168173ffffffffffffffffffffffffffffffffffffffff16837ff6391f5c32d9c69d2a47ea670b442974b53935d1edc7fd64eb21e047a839171b60405160405180910390a45b5050565b61243c82826110b9565b61250f5760016097600084815260200190815260200160002060000160008373ffffffffffffffffffffffffffffffffffffffff1673ffffffffffffffffffffffffffffffffffffffff16815260200190815260200160002060006101000a81548160ff0219169083151502179055506124b4612513565b73ffffffffffffffffffffffffffffffffffffffff168173ffffffffffffffffffffffffffffffffffffffff16837f2f8788117e7eff1d82e926ec794901d17c78024a50270940304540a733656f0d60405160405180910390a45b5050565b600033905090565b61259e846323b872dd60e01b85858560405160240161253c93929190613701565b604051602081830303815290604052907bffffffffffffffffffffffffffffffffffffffffffffffffffffffff19166020820180517bffffffffffffffffffffffffffffffffffffffffffffffffffffffff8381831617835250505050612909565b50505050565b804710156125e7576040517f08c379a00000000000000000000000000000000000000000000000000000000081526004016125de9061395b565b60405180910390fd5b60008273ffffffffffffffffffffffffffffffffffffffff168260405161260d90613652565b60006040518083038185875af1925050503d806000811461264a576040519150601f19603f3d011682016040523d82523d6000602084013e61264f565b606091505b5050905080612693576040517f08c379a000000000000000000000000000000000000000000000000000000000815260040161268a9061393b565b60405180910390fd5b505050565b6126a0610d95565b156126e0576040517f08c379a00000000000000000000000000000000000000000000000000000000081526004016126d7906139bb565b60405180910390fd5b6001603360006101000a81548160ff0219169083151502179055507f62e78cea01bee320cd4e420270b5ea74000d11b0c9f74754ebdbfc544b05a258612724612513565b60405161273191906136a1565b60405180910390a1565b612743610d95565b612782576040517f08c379a00000000000000000000000000000000000000000000000000000000081526004016127799061385b565b60405180910390fd5b6000603360006101000a81548160ff0219169083151502179055507f5db9ee0a495bf2e6ff9c91a7834c1ba4fdd244a5e8aa4e537bd38aeae4b073aa6127c6612513565b6040516127d391906136a1565b60405180910390a1565b6000808273ffffffffffffffffffffffffffffffffffffffff163b119050919050565b600060019054906101000a900460ff1661284f576040517f08c379a000000000000000000000000000000000000000000000000000000000815260040161284690613a7b565b60405180910390fd5b6000603360006101000a81548160ff021916908315150217905550565b61287682826110b9565b6129055761289b8173ffffffffffffffffffffffffffffffffffffffff1660146129d0565b6128a98360001c60206129d0565b6040516020016128ba929190613667565b6040516020818303038152906040526040517f08c379a00000000000000000000000000000000000000000000000000000000081526004016128fc9190613819565b60405180910390fd5b5050565b600061296b826040518060400160405280602081526020017f5361666545524332303a206c6f772d6c6576656c2063616c6c206661696c65648152508573ffffffffffffffffffffffffffffffffffffffff16612cca9092919063ffffffff16565b90506000815111156129cb578080602001905181019061298b9190612fbd565b6129ca576040517f08c379a00000000000000000000000000000000000000000000000000000000081526004016129c190613a9b565b60405180910390fd5b5b505050565b6060600060028360026129e39190613c52565b6129ed9190613bcb565b67ffffffffffffffff811115612a2c577f4e487b7100000000000000000000000000000000000000000000000000000000600052604160045260246000fd5b6040519080825280601f01601f191660200182016040528015612a5e5781602001600182028036833780820191505090505b5090507f300000000000000000000000000000000000000000000000000000000000000081600081518110612abc577f4e487b7100000000000000000000000000000000000000000000000000000000600052603260045260246000fd5b60200101907effffffffffffffffffffffffffffffffffffffffffffffffffffffffffffff1916908160001a9053507f780000000000000000000000000000000000000000000000000000000000000081600181518110612b46577f4e487b7100000000000000000000000000000000000000000000000000000000600052603260045260246000fd5b60200101907effffffffffffffffffffffffffffffffffffffffffffffffffffffffffffff1916908160001a90535060006001846002612b869190613c52565b612b909190613bcb565b90505b6001811115612c7c577f3031323334353637383961626364656600000000000000000000000000000000600f861660108110612bf8577f4e487b7100000000000000000000000000000000000000000000000000000000600052603260045260246000fd5b1a60f81b828281518110612c35577f4e487b7100000000000000000000000000000000000000000000000000000000600052603260045260246000fd5b60200101907effffffffffffffffffffffffffffffffffffffffffffffffffffffffffffff1916908160001a905350600485901c945080612c7590613dc4565b9050612b93565b5060008414612cc0576040517f08c379a0000000000000000000000000000000000000000000000000000000008152600401612cb79061383b565b60405180910390fd5b8091505092915050565b6060612cd98484600085612ce2565b90509392505050565b606082471015612d27576040517f08c379a0000000000000000000000000000000000000000000000000000000008152600401612d1e9061397b565b60405180910390fd5b612d30856127dd565b612d6f576040517f08c379a0000000000000000000000000000000000000000000000000000000008152600401612d6690613a3b565b60405180910390fd5b6000808673ffffffffffffffffffffffffffffffffffffffff168587604051612d98919061363b565b60006040518083038185875af1925050503d8060008114612dd5576040519150601f19603f3d011682016040523d82523d6000602084013e612dda565b606091505b5091509150612dea828286612df6565b92505050949350505050565b60608315612e0657829050612e56565b600083511115612e195782518084602001fd5b816040517f08c379a0000000000000000000000000000000000000000000000000000000008152600401612e4d9190613819565b60405180910390fd5b9392505050565b60405180606001604052806000815260200160008152602001600081525090565b60405180606001604052806000815260200160008152602001600081525090565b600081359050612eae81614393565b92915050565b600081519050612ec3816143aa565b92915050565b600081359050612ed8816143c1565b92915050565b600081359050612eed816143d8565b92915050565b600081359050612f02816143ef565b92915050565b600081519050612f17816143ef565b92915050565b600060208284031215612f2f57600080fd5b6000612f3d84828501612e9f565b91505092915050565b600080600080600060a08688031215612f5e57600080fd5b6000612f6c88828901612e9f565b9550506020612f7d88828901612e9f565b9450506040612f8e88828901612e9f565b9350506060612f9f88828901612e9f565b9250506080612fb088828901612e9f565b9150509295509295909350565b600060208284031215612fcf57600080fd5b6000612fdd84828501612eb4565b91505092915050565b600060208284031215612ff857600080fd5b600061300684828501612ec9565b91505092915050565b6000806040838503121561302257600080fd5b600061303085828601612ec9565b925050602061304185828601612e9f565b9150509250929050565b60006020828403121561305d57600080fd5b600061306b84828501612ede565b91505092915050565b60006020828403121561308657600080fd5b600061309484828501612ef3565b91505092915050565b6000602082840312156130af57600080fd5b60006130bd84828501612f08565b91505092915050565b60006130d283836135df565b60408301905092915050565b6130e781613ce0565b82525050565b60006130f882613b65565b6131028185613b93565b935061310d83613b55565b8060005b8381101561313e57815161312588826130c6565b975061313083613b86565b925050600181019050613111565b5085935050505092915050565b61315481613cf2565b82525050565b61316381613cfe565b82525050565b600061317482613b70565b61317e8185613ba4565b935061318e818560208601613d91565b80840191505092915050565b6131a381613d7f565b82525050565b60006131b482613b7b565b6131be8185613baf565b93506131ce818560208601613d91565b6131d781613ec6565b840191505092915050565b60006131ed82613b7b565b6131f78185613bc0565b9350613207818560208601613d91565b80840191505092915050565b6000613220602083613baf565b915061322b82613ed7565b602082019050919050565b6000613243601483613baf565b915061324e82613f00565b602082019050919050565b6000613266601883613baf565b915061327182613f29565b602082019050919050565b6000613289600d83613baf565b915061329482613f52565b602082019050919050565b60006132ac600c83613baf565b91506132b782613f7b565b602082019050919050565b60006132cf603183613baf565b91506132da82613fa4565b604082019050919050565b60006132f2600e83613baf565b91506132fd82613ff3565b602082019050919050565b6000613315601683613baf565b91506133208261401c565b602082019050919050565b6000613338603a83613baf565b915061334382614045565b604082019050919050565b600061335b601d83613baf565b915061336682614094565b602082019050919050565b600061337e602683613baf565b9150613389826140bd565b604082019050919050565b60006133a1601683613baf565b91506133ac8261410c565b602082019050919050565b60006133c4601083613baf565b91506133cf82614135565b602082019050919050565b60006133e7601583613baf565b91506133f28261415e565b602082019050919050565b600061340a602e83613baf565b915061341582614187565b604082019050919050565b600061342d601a83613baf565b9150613438826141d6565b602082019050919050565b6000613450600083613ba4565b915061345b826141ff565b600082019050919050565b6000613473601d83613baf565b915061347e82614202565b602082019050919050565b6000613496601a83613baf565b91506134a18261422b565b602082019050919050565b60006134b9602b83613baf565b91506134c482614254565b604082019050919050565b60006134dc601783613bc0565b91506134e7826142a3565b601782019050919050565b60006134ff602a83613baf565b915061350a826142cc565b604082019050919050565b6000613522601183613bc0565b915061352d8261431b565b601182019050919050565b6000613545602f83613baf565b915061355082614344565b604082019050919050565b606082016000820151613571600085018261360e565b506020820151613584602085018261360e565b506040820151613597604085018261360e565b50505050565b6060820160008201516135b3600085018261360e565b5060208201516135c6602085018261360e565b5060408201516135d9604085018261360e565b50505050565b6040820160008201516135f5600085018261360e565b506020820151613608602085018261360e565b50505050565b61361781613d54565b82525050565b61362681613d54565b82525050565b61363581613d5e565b82525050565b60006136478284613169565b915081905092915050565b600061365d82613443565b9150819050919050565b6000613672826134cf565b915061367e82856131e2565b915061368982613515565b915061369582846131e2565b91508190509392505050565b60006020820190506136b660008301846130de565b92915050565b60006080820190506136d160008301876130de565b6136de60208301866130de565b6136eb60408301856130de565b6136f860608301846130de565b95945050505050565b600060608201905061371660008301866130de565b61372360208301856130de565b613730604083018461361d565b949350505050565b600060808201905061374d60008301876130de565b61375a60208301866130de565b613767604083018561361d565b613774606083018461362c565b95945050505050565b600060408201905061379260008301856130de565b61379f602083018461361d565b9392505050565b600060208201905081810360008301526137c081846130ed565b905092915050565b60006020820190506137dd600083018461314b565b92915050565b60006020820190506137f8600083018461315a565b92915050565b6000602082019050613813600083018461319a565b92915050565b6000602082019050818103600083015261383381846131a9565b905092915050565b6000602082019050818103600083015261385481613213565b9050919050565b6000602082019050818103600083015261387481613236565b9050919050565b6000602082019050818103600083015261389481613259565b9050919050565b600060208201905081810360008301526138b48161327c565b9050919050565b600060208201905081810360008301526138d48161329f565b9050919050565b600060208201905081810360008301526138f4816132c2565b9050919050565b60006020820190508181036000830152613914816132e5565b9050919050565b6000602082019050818103600083015261393481613308565b9050919050565b600060208201905081810360008301526139548161332b565b9050919050565b600060208201905081810360008301526139748161334e565b9050919050565b6000602082019050818103600083015261399481613371565b9050919050565b600060208201905081810360008301526139b481613394565b9050919050565b600060208201905081810360008301526139d4816133b7565b9050919050565b600060208201905081810360008301526139f4816133da565b9050919050565b60006020820190508181036000830152613a14816133fd565b9050919050565b60006020820190508181036000830152613a3481613420565b9050919050565b60006020820190508181036000830152613a5481613466565b9050919050565b60006020820190508181036000830152613a7481613489565b9050919050565b60006020820190508181036000830152613a94816134ac565b9050919050565b60006020820190508181036000830152613ab4816134f2565b9050919050565b60006020820190508181036000830152613ad481613538565b9050919050565b6000606082019050613af0600083018461355b565b92915050565b6000606082019050613b0b600083018461359d565b92915050565b6000602082019050613b26600083018461361d565b92915050565b6000604082019050613b41600083018561361d565b613b4e602083018461361d565b9392505050565b6000819050602082019050919050565b600081519050919050565b600081519050919050565b600081519050919050565b6000602082019050919050565b600082825260208201905092915050565b600081905092915050565b600082825260208201905092915050565b600081905092915050565b6000613bd682613d54565b9150613be183613d54565b9250827fffffffffffffffffffffffffffffffffffffffffffffffffffffffffffffffff03821115613c1657613c15613e68565b5b828201905092915050565b6000613c2c82613d54565b9150613c3783613d54565b925082613c4757613c46613e97565b5b828204905092915050565b6000613c5d82613d54565b9150613c6883613d54565b9250817fffffffffffffffffffffffffffffffffffffffffffffffffffffffffffffffff0483118215151615613ca157613ca0613e68565b5b828202905092915050565b6000613cb782613d54565b9150613cc283613d54565b925082821015613cd557613cd4613e68565b5b828203905092915050565b6000613ceb82613d34565b9050919050565b60008115159050919050565b6000819050919050565b60007fffffffff0000000000000000000000000000000000000000000000000000000082169050919050565b600073ffffffffffffffffffffffffffffffffffffffff82169050919050565b6000819050919050565b600067ffffffffffffffff82169050919050565b600060ff82169050919050565b6000613d8a82613d72565b9050919050565b60005b83811015613daf578082015181840152602081019050613d94565b83811115613dbe576000848401525b50505050565b6000613dcf82613d54565b91506000821415613de357613de2613e68565b5b600182039050919050565b6000613df982613d54565b91507fffffffffffffffffffffffffffffffffffffffffffffffffffffffffffffffff821415613e2c57613e2b613e68565b5b600182019050919050565b6000613e4282613d54565b9150613e4d83613d54565b925082613e5d57613e5c613e97565b5b828206905092915050565b7f4e487b7100000000000000000000000000000000000000000000000000000000600052601160045260246000fd5b7f4e487b7100000000000000000000000000000000000000000000000000000000600052601260045260246000fd5b6000601f19601f8301169050919050565b7f537472696e67733a20686578206c656e67746820696e73756666696369656e74600082015250565b7f5061757361626c653a206e6f7420706175736564000000000000000000000000600082015250565b7f496e636f727265637420416d6f756e74206f662046756e640000000000000000600082015250565b7f496e76616c696420696e64657800000000000000000000000000000000000000600082015250565b7f496e76616c696420555549440000000000000000000000000000000000000000600082015250565b7f52657175697265204d6f72652052656c6179204665652c20436865636b20676560008201527f74546f6b656e48756252656c6179466565000000000000000000000000000000602082015250565b7f496e76616c696420416d6f756e74000000000000000000000000000000000000600082015250565b7f4e6f205265717565737420746f20776974686472617700000000000000000000600082015250565b7f416464726573733a20756e61626c6520746f2073656e642076616c75652c207260008201527f6563697069656e74206d61792068617665207265766572746564000000000000602082015250565b7f416464726573733a20696e73756666696369656e742062616c616e6365000000600082015250565b7f416464726573733a20696e73756666696369656e742062616c616e636520666f60008201527f722063616c6c0000000000000000000000000000000000000000000000000000602082015250565b7f4e6f206d6f72652066756e647320746f207374616b6500000000000000000000600082015250565b7f5061757361626c653a2070617573656400000000000000000000000000000000600082015250565b7f4e6f742061626c6520746f20636c61696d207965740000000000000000000000600082015250565b7f496e697469616c697a61626c653a20636f6e747261637420697320616c72656160008201527f647920696e697469616c697a6564000000000000000000000000000000000000602082015250565b7f4f6c642061646472657373203d3d206e65772061646472657373000000000000600082015250565b50565b7f416464726573733a2063616c6c20746f206e6f6e2d636f6e7472616374000000600082015250565b7f4e6f7420656e6f75676820424e4220746f207769746864726177000000000000600082015250565b7f496e697469616c697a61626c653a20636f6e7472616374206973206e6f74206960008201527f6e697469616c697a696e67000000000000000000000000000000000000000000602082015250565b7f416363657373436f6e74726f6c3a206163636f756e7420000000000000000000600082015250565b7f5361666545524332303a204552433230206f7065726174696f6e20646964206e60008201527f6f74207375636365656400000000000000000000000000000000000000000000602082015250565b7f206973206d697373696e6720726f6c6520000000000000000000000000000000600082015250565b7f416363657373436f6e74726f6c3a2063616e206f6e6c792072656e6f756e636560008201527f20726f6c657320666f722073656c660000000000000000000000000000000000602082015250565b61439c81613ce0565b81146143a757600080fd5b50565b6143b381613cf2565b81146143be57600080fd5b50565b6143ca81613cfe565b81146143d557600080fd5b50565b6143e181613d08565b81146143ec57600080fd5b50565b6143f881613d54565b811461440357600080fd5b5056fea26469706673582212200e72feeb327e6e57151dc65f0b743f3a1d8b26ba9ffd7a55af75b56e2b6f8d8c64736f6c63430008040033",
  "linkReferences": {},
  "deployedLinkReferences": {}
}